:0400000080313E28E5
:10000800803120007F08F1002100911C0C280D2868
:100018003A282000911C112812283A287408013A1D
:10002800031D172818282428FE308C002830F000DB
:10003800F00B1C286400FF3020008C00F4013828E5
:10004800F408031D282829283828FD308C0028307A
:10005800F000F00B2D286400FF3020008C00F40124
:100068000314F40D3828382891103A287108200014
:10007800FF000900880180316228023021009100C8
:1000880040308B007F3020009C0008309B00FC3003
:1000980021008C00FF3020008C008B170800F20133
:1000A800F301803141208031F4015A280130F207F0
:1000B8000030F33D5A285A2880313E28F4012000A8
:0400C8008031532808
:020000040001F9
:04000E00E00FFF1CE4
:00000001FF
